{
  "contractName": "CryptogamaSwap",
  "abi": [
    {
      "inputs": [],
      "stateMutability": "payable",
      "type": "constructor"
    },
    {
      "anonymous": false,
      "inputs": [
        {
          "indexed": true,
          "internalType": "address",
          "name": "previousOwner",
          "type": "address"
        },
        {
          "indexed": true,
          "internalType": "address",
          "name": "newOwner",
          "type": "address"
        }
      ],
      "name": "OwnershipTransferred",
      "type": "event"
    },
    {
      "anonymous": false,
      "inputs": [
        {
          "indexed": true,
          "internalType": "address",
          "name": "to",
          "type": "address"
        },
        {
          "indexed": false,
          "internalType": "uint256",
          "name": "ETHAmount",
          "type": "uint256"
        },
        {
          "indexed": false,
          "internalType": "uint256",
          "name": "ALYAmount",
          "type": "uint256"
        },
        {
          "indexed": false,
          "internalType": "uint256",
          "name": "DAIAmount",
          "type": "uint256"
        }
      ],
      "name": "SwapContractEmptied",
      "type": "event"
    },
    {
      "anonymous": false,
      "inputs": [
        {
          "indexed": true,
          "internalType": "address",
          "name": "from",
          "type": "address"
        },
        {
          "indexed": true,
          "internalType": "address",
          "name": "to",
          "type": "address"
        },
        {
          "indexed": false,
          "internalType": "uint256",
          "name": "amountSold",
          "type": "uint256"
        },
        {
          "indexed": false,
          "internalType": "uint256",
          "name": "amountBought",
          "type": "uint256"
        }
      ],
      "name": "TokenExchanged",
      "type": "event"
    },
    {
      "inputs": [],
      "name": "isOwner",
      "outputs": [
        {
          "internalType": "bool",
          "name": "",
          "type": "bool"
        }
      ],
      "stateMutability": "view",
      "type": "function"
    },
    {
      "inputs": [],
      "name": "owner",
      "outputs": [
        {
          "internalType": "address",
          "name": "",
          "type": "address"
        }
      ],
      "stateMutability": "view",
      "type": "function"
    },
    {
      "inputs": [],
      "name": "renounceOwnership",
      "outputs": [],
      "stateMutability": "nonpayable",
      "type": "function"
    },
    {
      "inputs": [
        {
          "internalType": "address",
          "name": "newOwner",
          "type": "address"
        }
      ],
      "name": "transferOwnership",
      "outputs": [],
      "stateMutability": "nonpayable",
      "type": "function"
    },
    {
      "stateMutability": "payable",
      "type": "receive"
    },
    {
      "inputs": [
        {
          "internalType": "address",
          "name": "sellerAddress",
          "type": "address"
        },
        {
          "internalType": "address payable",
          "name": "sellerTokenAddress",
          "type": "address"
        },
        {
          "internalType": "uint256",
          "name": "amountSeller",
          "type": "uint256"
        },
        {
          "internalType": "address",
          "name": "buyerAddress",
          "type": "address"
        },
        {
          "internalType": "address payable",
          "name": "buyerTokenAddress",
          "type": "address"
        },
        {
          "internalType": "uint256",
          "name": "amountBuyer",
          "type": "uint256"
        }
      ],
      "name": "swapToken",
      "outputs": [
        {
          "internalType": "bool",
          "name": "",
          "type": "bool"
        }
      ],
      "stateMutability": "nonpayable",
      "type": "function"
    },
    {
      "inputs": [
        {
          "internalType": "address payable",
          "name": "ALYTokenAddress",
          "type": "address"
        },
        {
          "internalType": "address payable",
          "name": "DAITokenAddress",
          "type": "address"
        }
      ],
      "name": "withdrawAll",
      "outputs": [],
      "stateMutability": "nonpayable",
      "type": "function"
    }
  ],
  "bytecode": "0x608060405260006100146100f860201b60201c565b9050806000806101000a81548173ffffffffffffffffffffffffffffffffffffffff021916908373ffffffffffffffffffffffffffffffffffffffff1602179055508073ffffffffffffffffffffffffffffffffffffffff16600073ffffffffffffffffffffffffffffffffffffffff167f8be0079c531659141344cd1fd0a4f28419497f9722a3daafe3b4186f6b6457e060405160405180910390a35033600160006101000a81548173ffffffffffffffffffffffffffffffffffffffff021916908373ffffffffffffffffffffffffffffffffffffffff160217905550610100565b600033905090565b610e028061010f6000396000f3fe6080604052600436106100595760003560e01c806309cae2c814610065578063715018a6146100d65780638da5cb5b146100ed5780638f32d59b14610144578063ed563f8e14610173578063f2fde38b1461025057610060565b3661006057005b600080fd5b34801561007157600080fd5b506100d46004803603604081101561008857600080fd5b81019080803573ffffffffffffffffffffffffffffffffffffffff169060200190929190803573ffffffffffffffffffffffffffffffffffffffff1690602001909291905050506102a1565b005b3480156100e257600080fd5b506100eb61078f565b005b3480156100f957600080fd5b506101026108c8565b604051808273ffffffffffffffffffffffffffffffffffffffff1673ffffffffffffffffffffffffffffffffffffffff16815260200191505060405180910390f35b34801561015057600080fd5b506101596108f1565b604051808215151515815260200191505060405180910390f35b34801561017f57600080fd5b50610236600480360360c081101561019657600080fd5b81019080803573ffffffffffffffffffffffffffffffffffffffff169060200190929190803573ffffffffffffffffffffffffffffffffffffffff16906020019092919080359060200190929190803573ffffffffffffffffffffffffffffffffffffffff169060200190929190803573ffffffffffffffffffffffffffffffffffffffff1690602001909291908035906020019092919050505061094f565b604051808215151515815260200191505060405180910390f35b34801561025c57600080fd5b5061029f6004803603602081101561027357600080fd5b81019080803573ffffffffffffffffffffffffffffffffffffffff169060200190929190505050610bd4565b005b6102a96108f1565b61031b576040517f08c379a00000000000000000000000000000000000000000000000000000000081526004018080602001828103825260208152602001807f4f776e61626c653a2063616c6c6572206973206e6f7420746865206f776e657281525060200191505060405180910390fd5b60008290506000829050600030905060008173ffffffffffffffffffffffffffffffffffffffff1631905060008473ffffffffffffffffffffffffffffffffffffffff166370a08231306040518263ffffffff1660e01b8152600401808273ffffffffffffffffffffffffffffffffffffffff1673ffffffffffffffffffffffffffffffffffffffff16815260200191505060206040518083038186803b1580156103c557600080fd5b505afa1580156103d9573d6000803e3d6000fd5b505050506040513d60208110156103ef57600080fd5b8101908080519060200190929190505050905060008473ffffffffffffffffffffffffffffffffffffffff166370a08231306040518263ffffffff1660e01b8152600401808273ffffffffffffffffffffffffffffffffffffffff1673ffffffffffffffffffffffffffffffffffffffff16815260200191505060206040518083038186803b15801561048157600080fd5b505afa158015610495573d6000803e3d6000fd5b505050506040513d60208110156104ab57600080fd5b81019080805190602001909291905050509050600160009054906101000a900473ffffffffffffffffffffffffffffffffffffffff1673ffffffffffffffffffffffffffffffffffffffff166108fc849081150290604051600060405180830381858888f19350505050158015610526573d6000803e3d6000fd5b506000821115610616578573ffffffffffffffffffffffffffffffffffffffff1663a9059cbb600160009054906101000a900473ffffffffffffffffffffffffffffffffffffffff16846040518363ffffffff1660e01b8152600401808373ffffffffffffffffffffffffffffffffffffffff1673ffffffffffffffffffffffffffffffffffffffff16815260200182815260200192505050602060405180830381600087803b1580156105d957600080fd5b505af11580156105ed573d6000803e3d6000fd5b505050506040513d602081101561060357600080fd5b8101908080519060200190929190505050505b6000811115610705578473ffffffffffffffffffffffffffffffffffffffff1663a9059cbb600160009054906101000a900473ffffffffffffffffffffffffffffffffffffffff16836040518363ffffffff1660e01b8152600401808373ffffffffffffffffffffffffffffffffffffffff1673ffffffffffffffffffffffffffffffffffffffff16815260200182815260200192505050602060405180830381600087803b1580156106c857600080fd5b505af11580156106dc573d6000803e3d6000fd5b505050506040513d60208110156106f257600080fd5b8101908080519060200190929190505050505b600160009054906101000a900473ffffffffffffffffffffffffffffffffffffffff1673ffffffffffffffffffffffffffffffffffffffff167f36f42f53a77b1c42223a3dbc82c58a99587366af57e217f6836aafdbbb4cbeb484848460405180848152602001838152602001828152602001935050505060405180910390a25050505050505050565b6107976108f1565b610809576040517f08c379a00000000000000000000000000000000000000000000000000000000081526004018080602001828103825260208152602001807f4f776e61626c653a2063616c6c6572206973206e6f7420746865206f776e657281525060200191505060405180910390fd5b600073ffffffffffffffffffffffffffffffffffffffff166000809054906101000a900473ffffffffffffffffffffffffffffffffffffffff1673ffffffffffffffffffffffffffffffffffffffff167f8be0079c531659141344cd1fd0a4f28419497f9722a3daafe3b4186f6b6457e060405160405180910390a360008060006101000a81548173ffffffffffffffffffffffffffffffffffffffff021916908373ffffffffffffffffffffffffffffffffffffffff160217905550565b60008060009054906101000a900473ffffffffffffffffffffffffffffffffffffffff16905090565b60008060009054906101000a900473ffffffffffffffffffffffffffffffffffffffff1673ffffffffffffffffffffffffffffffffffffffff16610933610c5a565b73ffffffffffffffffffffffffffffffffffffffff1614905090565b60006109596108f1565b6109cb576040517f08c379a00000000000000000000000000000000000000000000000000000000081526004018080602001828103825260208152602001807f4f776e61626c653a2063616c6c6572206973206e6f7420746865206f776e657281525060200191505060405180910390fd5b600086905060008490508173ffffffffffffffffffffffffffffffffffffffff1663a9059cbb87896040518363ffffffff1660e01b8152600401808373ffffffffffffffffffffffffffffffffffffffff1673ffffffffffffffffffffffffffffffffffffffff16815260200182815260200192505050602060405180830381600087803b158015610a5c57600080fd5b505af1158015610a70573d6000803e3d6000fd5b505050506040513d6020811015610a8657600080fd5b8101908080519060200190929190505050508073ffffffffffffffffffffffffffffffffffffffff1663a9059cbb8a866040518363ffffffff1660e01b8152600401808373ffffffffffffffffffffffffffffffffffffffff1673ffffffffffffffffffffffffffffffffffffffff16815260200182815260200192505050602060405180830381600087803b158015610b1f57600080fd5b505af1158015610b33573d6000803e3d6000fd5b505050506040513d6020811015610b4957600080fd5b8101908080519060200190929190505050508573ffffffffffffffffffffffffffffffffffffffff168973ffffffffffffffffffffffffffffffffffffffff167f69b4f7d081ba8c7a13dc0ad819546a7aff7bd67d69d55c1824935fce9f26178c8987604051808381526020018281526020019250505060405180910390a350509695505050505050565b610bdc6108f1565b610c4e576040517f08c379a00000000000000000000000000000000000000000000000000000000081526004018080602001828103825260208152602001807f4f776e61626c653a2063616c6c6572206973206e6f7420746865206f776e657281525060200191505060405180910390fd5b610c5781610c62565b50565b600033905090565b600073ffffffffffffffffffffffffffffffffffffffff168173ffffffffffffffffffffffffffffffffffffffff161415610ce8576040517f08c379a0000000000000000000000000000000000000000000000000000000008152600401808060200182810382526026815260200180610da76026913960400191505060405180910390fd5b8073ffffffffffffffffffffffffffffffffffffffff166000809054906101000a900473ffffffffffffffffffffffffffffffffffffffff1673ffffffffffffffffffffffffffffffffffffffff167f8be0079c531659141344cd1fd0a4f28419497f9722a3daafe3b4186f6b6457e060405160405180910390a3806000806101000a81548173ffffffffffffffffffffffffffffffffffffffff021916908373ffffffffffffffffffffffffffffffffffffffff1602179055505056fe4f776e61626c653a206e6577206f776e657220697320746865207a65726f2061646472657373a2646970667358221220182760f401ea6b93518af980670653494bee6611b840df24ccfd0100b2e026c964736f6c63430006020033",
  "source": "pragma solidity ^0.6.2;\n\nimport \"./Ownable.sol\";\nimport \"./SafeMath.sol\";\nimport \"./TokenERC20Aly.sol\";\nimport \"./TokenERC20Dai.sol\";\n\n/// @title Cryptogama swap contract\n/// @author Raphael Pinto Gregorio\n/// @notice Use this contract to swap ERC-20 tokens\n/// @dev The owner of this contract need to get the approval from both token owners to be able to proceed the swap\ncontract CryptogamaSwap is Ownable {\n    address payable private _owner;\n\n    event TokenExchanged(address indexed from, address indexed to, uint256 amountSold, uint256 amountBought);\n    event SwapContractEmptied(address indexed to, uint256 ETHAmount, uint256 ALYAmount, uint256 DAIAmount);\n\n    constructor () payable public {\n        _owner = msg.sender;\n    }\n\n    receive() external payable {}\n\n    /// @notice perform tokens swap between two owners \n    /// @dev swap tokens, owner of swap contract need the approval of both token owners, emit an event called TokenExchanged\n    /// @param sellerAddress the address of the seller, sellerTokenAddress the address of the seller ERC-20, amountSeller the amount the seller wants to exchange, buyerAddress the buyer address, buyerTokenAddress the adress of the buyer ERC-20, amountBuyer the amount to be exchanged\n    /// @return an event TokenExchanged containing the seller address, the buyer address, the amount sold and the amount bought in this order\n    function swapToken(address sellerAddress, address payable sellerTokenAddress, uint256 amountSeller,  address buyerAddress, address payable buyerTokenAddress, uint256 amountBuyer) external onlyOwner returns(bool){\n        TokenERC20Aly TokenSell = TokenERC20Aly(sellerTokenAddress);\n        TokenERC20Dai TokenBuy = TokenERC20Dai(buyerTokenAddress);\n\n        TokenSell.transfer(buyerAddress, amountSeller);\n        TokenBuy.transfer(sellerAddress, amountBuyer);\n\n        emit TokenExchanged(sellerAddress, buyerAddress, amountSeller, amountBuyer);\n    }\n\n    /// @notice withdraw all funds from contract \n    /// @dev withdraw funds from contract and transfer them to current owner, including ETH, emit an event called SwapContractEmptied\n    /// @param ALYTokenAddress the address of ALY token, DAITokenAddress the address of DAI token\n    /// An event SwapContractEmptied containing the owner address, the ETH amount sent, ALY amount sent and DAI amount sent is emitted\n    function withdrawAll(address payable ALYTokenAddress, address payable DAITokenAddress) external onlyOwner {\n        TokenERC20Aly TokenALY = TokenERC20Aly(ALYTokenAddress);\n        TokenERC20Dai TokenDAI = TokenERC20Dai(DAITokenAddress);\n\n        address payable self = address(this);\n        uint256 ETHbalance = self.balance;\n        uint256 ALYbalance = TokenALY.balanceOf(address(this));\n        uint256 DAIbalance = TokenDAI.balanceOf(address(this));\n\n        _owner.transfer(ETHbalance);\n        if (ALYbalance > 0) {\n            TokenALY.transfer(_owner, ALYbalance);\n        }\n        if (DAIbalance > 0) {\n            TokenDAI.transfer(_owner, DAIbalance);\n        }\n\n        emit SwapContractEmptied(_owner, ETHbalance, ALYbalance, DAIbalance);\n    }\n}",
  "sourcePath": "/home/bobby/cryptogama-heroku/cryptogama-heroku/contracts/CryptogamaSwap.sol",
  "compiler": {
    "name": "solc",
    "version": "0.6.2+commit.bacdbe57.Emscripten.clang"
  },
  "schemaVersion": "3.1.0",
  "updatedAt": "2020-05-15T14:49:40.610Z",
  "devdoc": {
    "author": "Raphael Pinto Gregorio",
    "details": "The owner of this contract need to get the approval from both token owners to be able to proceed the swap",
    "methods": {
      "isOwner()": {
        "details": "Returns true if the caller is the current owner."
      },
      "owner()": {
        "details": "Returns the address of the current owner."
      },
      "renounceOwnership()": {
        "details": "Leaves the contract without owner. It will not be possible to call `onlyOwner` functions anymore. Can only be called by the current owner.     * NOTE: Renouncing ownership will leave the contract without an owner, thereby removing any functionality that is only available to the owner."
      },
      "swapToken(address,address,uint256,address,address,uint256)": {
        "details": "swap tokens, owner of swap contract need the approval of both token owners, emit an event called TokenExchanged",
        "params": {
          "sellerAddress": "the address of the seller, sellerTokenAddress the address of the seller ERC-20, amountSeller the amount the seller wants to exchange, buyerAddress the buyer address, buyerTokenAddress the adress of the buyer ERC-20, amountBuyer the amount to be exchanged"
        },
        "returns": {
          "_0": "an event TokenExchanged containing the seller address, the buyer address, the amount sold and the amount bought in this order"
        }
      },
      "transferOwnership(address)": {
        "details": "Transfers ownership of the contract to a new account (`newOwner`). Can only be called by the current owner."
      },
      "withdrawAll(address,address)": {
        "details": "withdraw funds from contract and transfer them to current owner, including ETH, emit an event called SwapContractEmptied",
        "params": {
          "ALYTokenAddress": "the address of ALY token, DAITokenAddress the address of DAI token An event SwapContractEmptied containing the owner address, the ETH amount sent, ALY amount sent and DAI amount sent is emitted"
        }
      }
    },
    "title": "Cryptogama swap contract"
  },
  "userdoc": {
    "methods": {
      "swapToken(address,address,uint256,address,address,uint256)": {
        "notice": "perform tokens swap between two owners "
      },
      "withdrawAll(address,address)": {
        "notice": "withdraw all funds from contract "
      }
    },
    "notice": "Use this contract to swap ERC-20 tokens"
  }
}